:100000000C9434000C9446000C9446000C9446006A
:100010000C9446000C9446000C9446000C94460048
:100020000C9446000C9446000C9446000C94460038
:100030000C9446000C9446000C9446000C94460028
:100040000C9446000C9446000C9446000C94460018
:100050000C9446000C9446000C9446000C94460008
:100060000C9446000C94460011241FBECFEFD4E040
:10007000DEBFCDBF21E0A0E0B1E001C01D92A23003
:10008000B207E1F70E94C4000C94E8000C94000051
:1000900088B1806388B980E28093B800ECEBF0E02F
:1000A00080818460808308958091BC0087FFFCCFAD
:1000B000089584EC8093BC000E9454008091BB00A2
:1000C000089584E88093BC000E9454008091BB0096
:1000D000089584EA8093BC000C9454008093BB0084
:1000E00084E88093BC000C9454009091C00095FF6C
:1000F000FCCF8093C6000895CF93C82F64E60E947A
:10010000DC00805D0E9475002AE08C2F622F0E9427
:10011000DC00C92F0E94DC0080E3890F0E9475007B
:1001200080E38C0FCF910C9475000E94690086EAE1
:100130000E946E008DE20E946E0088E00E946E00B8
:1001400087EA0E946E0089E590E08093010181E6D4
:1001500090E08093000184E98093BC0008951092A0
:10016000C5008CE08093C400E0ECF0E08081826008
:10017000808388E18093C100E2ECF0E086E0808338
:100180008081877F808308950E94AF000E9448008D
:100190000E949500809101010E947C0080910001E5
:1001A0000E947C002FE38DE093E02150804090403E
:1001B000E1F700C00000ECCF991B79E004C0991F63
:1001C000961708F0961B881F7A95C9F780950895B1
:0401D000F894FFCFD1
:00000001FF
