:100000000C9434000C9446000C9446000C9446006A
:100010000C9446000C9446000C9446000C94460048
:100020000C9446000C9446000C9446000C94460038
:100030000C9446000C9446000C9446000C94460028
:100040000C9446000C9446000C9446000C94460018
:100050000C9446000C9446000C9446000C94460008
:100060000C9446000C94460011241FBECFEFD4E040
:10007000DEBFCDBF21E0A0E0B1E001C01D92A23003
:10008000B207E1F70E94B1000C94F7000C94000055
:100090001092C5008CE08093C400E0ECF0E0808119
:1000A0008260808388E18093C100E2ECF0E086E02A
:1000B00080838081877F808308958091C00087FF3F
:1000C000FCCF8091C60008959091C00095FFFCCFB1
:1000D0008093C600089588B1806388B980E28093D8
:1000E000B800ECEBF0E0808184608083089580911B
:1000F000BC0087FFFCCF089584EC8093BC000E9475
:1001000077008091BB00089584E88093BC000E9432
:1001100077008091BB00089584EA8093BC000C9422
:1001200077008093BB0084E88093BC000C94770038
:100130000E948C0086EA0E9491008DE20E9491004C
:100140000E948C0087EA0E9491008CE790E08093E7
:10015000010184E890E08093000184E98093BC0071
:1001600008950E9448000E946B000E9498000E941F
:100170005D00809301010E946400809101010E9452
:10018000D2002FEB87E299E0215080409040E1F7C8
:1001900000C00000EACF9091C00095FFFCCF809393
:1001A000C6000895CF93C82F64E60E94EB00805DDF
:1001B0000E94CB002AE08C2F622F0E94EB00C92FF7
:1001C0000E94EB0080E3890F0E94CB0080E38C0F3C
:1001D000CF910C94CB00991B79E004C0991F96171E
:1001E00008F0961B881F7A95C9F780950895F894B2
:0201F000FFCF3F
:00000001FF
