:100000000C9434000C94CA020C9451000C945100CE
:100010000C9451000C9451000C9451000C9451001C
:100020000C9451000C9451000C9451000C9451000C
:100030000C9451000C9451000C9451000C945100FC
:100040000C9451000C9451000C9451000C945100EC
:100050000C9451000C9451000C9451000C945100DC
:100060000C9451000C94510011241FBECFEFD4E02A
:10007000DEBFCDBF11E0A0E0B1E0EEEDF6E002C0E2
:1000800005900D92A83AB107D9F721E0A8EAB1E0AE
:1000900001C01D92AC3BB207E1F70E9456010C94DF
:1000A0006D030C9400009BB1282F207F9F70922B32
:1000B0009BB95898599A0000599832E43A95F1F74B
:1000C00000C02BB130E1839FC0011124922F9F709B
:1000D000892B8BB9599A0000599883EF91E00197C9
:1000E000F1F700C0000008959BB1282F207F9F707A
:1000F000922B9BB9589A599A0000599832E43A9534
:10010000F1F700C02BB130E1839FC0011124922F81
:100110009F70892B8BB9599A0000599883EF91E011
:100120000197F1F700C0000008958FEF8AB987E8C2
:1001300093E10197F1F700C0000082E00E945300B4
:1001400088E20E9453008CE00E94530086E00E94E7
:10015000530081E00E94530083EF91E00197F1F793
:1001600000C000000895CF93DF93EC0189918823AC
:1001700019F00E947400FACFDF91CF91089581E0C9
:100180000E94530083EF91E00197F1F700C0000057
:1001900080E80C94530052985A9A0895E89AE9E638
:1001A000F0E0808181608083789408954A990DC041
:1001B00089EF90E00197F1F700C0000089B182FB60
:1001C000882780F991E08927089580E008950E94AA
:1001D000BF0084E091E00E94B3002FE38DE093E044
:1001E000215080409040E1F700C0000080EC0E9468
:1001F000530084E191E00E94B3002FEB87E299E085
:10020000215080409040E1F700C000000E94BF00F4
:1002100085E291E00E94B30080EC0E94530085E3E8
:1002200091E00E94B3008091020190910301009738
:10023000F1F7089588B1806388B980E28093B800AF
:10024000ECEBF0E080818460808308958091BC00B5
:1002500087FFFCCF089584EA8093BC000C942601AC
:1002600084EC8093BC000E9426018091BB0008951D
:1002700084E88093BC000E9426018091BB00089511
:100280008093BB0084E88093BC000C9426010E94FC
:100290002B0186EA0E9440018DE20E94400188E025
:1002A0000E94400184E98093BC0008950E9495005B
:1002B0000E94CB000E94CE000E941A010E944701BA
:1002C0000E94BF0084E091E00E94B3002FE38DE024
:1002D00093E0215080409040E1F700C0000080ECA6
:1002E0000E94530084E191E00E94B3002FEB87E26B
:1002F00099E0215080409040E1F700C000000E944A
:10030000BF0085E291E00E94B30080EC0E945300A0
:1003100085E391E00E94B300FFCF8091B0019091FE
:10032000B101893C910518F484E491E002C08AE4AB
:1003300091E09093B3018093B2018091B2019091CA
:10034000B30108950F931F93CF93DF930E942B0166
:1003500086EA0E94400182E30E9440010E942B0134
:1003600087EA0E9440010E943001C82F0E94380194
:100370000CEB10E0D4E9F801D0838C0F90E090935F
:10038000AF018093AE010E942B0186EA0E944001DA
:1003900084E30E9440010E942B0187EA0E944001F1
:1003A0000E943001C82F0E943801F801D0838C0FC1
:1003B00090E09093BB018093BA010E942B0186EAE2
:1003C0000E94400186E30E9440010E942B0187EABF
:1003D0000E9440010E943001C82F0E943801F8019C
:1003E000D0838C0F282F30E03093B5012093B401D7
:1003F0004091BA015091BB018091AE019091AF0143
:10040000840F951F820F931F63E070E00E94240306
:100410007093B1016093B001DF91CF911F910F9163
:100420000895CF93DF930E94BF008FE491E00E9474
:10043000B30080EC0E94530089E591E00E94B30074
:1004400089EC0E94530080E691E00E94B300809105
:10045000A8019091A90184319105D4F5019690935A
:10046000A9018093A8014AE066EB71E00E9438037D
:100470000E94A2010E94BF008FE491E00E94B3009D
:1004800080EC0E94530089E591E00E94B30089EC62
:100490000E94530080E691E00E94B3000E948D010B
:1004A000EC0189E80E945300CE010E94B30086EC63
:1004B0000E94530086EB91E00E94B3002FE38DE091
:1004C00093E0215080409040E1F700C00000BFCF92
:1004D0000E94BF0082E691E00E94B30086EC0E9479
:1004E000530084E491E00E94B3001092A90110929D
:1004F000A801DF91CF91089510920301109202019B
:100500000E94BF0084E791E00E94B30088EC0E9443
:10051000530085E891E00E94B3002FE38DE093E063
:10052000215080409040E1F700C0000088EC0E941C
:10053000530087E891E00E94B3002FE38DE093E041
:10054000215080409040E1F700C0000088EC0E94FC
:10055000530089E891E00E94B3002FE38DE093E01F
:10056000215080409040E1F700C000000E94BF0091
:1005700085E80E9453008BE891E00E94B3002FE3CE
:100580008DE093E0215080409040E1F700C00000F2
:100590000C9411021F920F920FB60F9211242F93F9
:1005A0003F934F935F936F937F938F939F93AF93FB
:1005B000BF93EF93FF930E94D6008823A1F195B1DA
:1005C00082E0892785B98091AA019091AB01892B9E
:1005D00011F00E94E7008091000190910101892BA8
:1005E00059F010920101109200011092AB0110928B
:1005F000AA010E947C0217C00E94BF0082E991E01C
:100600000E94B30080EC0E9453008DE991E00E94AB
:10061000B30081E090E090930101809300019093FA
:10062000AB018093AA01FF91EF91BF91AF919F9190
:100630008F917F916F915F914F913F912F910F908B
:100640000FBE0F901F901895AA1BBB1B51E107C04E
:10065000AA1FBB1FA617B70710F0A61BB70B881F52
:10066000991F5A95A9F780959095BC01CD010895E1
:10067000BB274A3031F4992322F4BDE2909581954D
:100680009F4F0C944403BB27FB015527AA27880FD3
:10069000991FAA1FA41710F0A41B83955051B9F7F6
:1006A000A05DAA3308F0A95DA193009779F7B11175
:1006B000B1931192CB010C945D03DC01FC01672F17
:1006C00071917723E1F7329704C07C916D93708329
:0E06D0006291AE17BF07C8F30895F894FFCFEC
:1006DE000100010048692066726F6D20472D426946
:1006EE006B65210042696B696E6720636F6D706187
:1006FE006E696F6E00507265737320627574746FDD
:10070E006E20746F00737461727420726964652157
:10071E00203A2900526F636B7900466C6174005465
:10072E0065727261696E3A200054696D653A2000F7
:10073E0073004176657261676520746572726169D6
:10074E006E3A200052696465207374617274696E2A
:10075E006720696E00330032003100537461727489
:10076E0021005468616E6B7320666F72007269644B
:08077E00696E6721203A290091
:00000001FF
