:100000000C9434000C9434030C9451000C94510063
:100010000C9451000C9451000C9451000C9451001C
:100020000C9451000C9451000C9451000C9451000C
:100030000C9451000C9451000C9451000C945100FC
:100040000C9451000C9451000C9451000C945100EC
:100050000C9451000C9451000C9451000C945100DC
:100060000C9451000C94510011241FBECFEFD4E02A
:10007000DEBFCDBF11E0A0E0B1E0EAEDF7E002C0E5
:1000800005900D92A23CB107D9F722E0A2ECB1E0B5
:1000900001C01D92AC31B207E1F70E9456010C94E9
:1000A000EB030C9400009BB1282F207F9F70922BB4
:1000B0009BB95898599A0000599832E43A95F1F74B
:1000C00000C02BB130E1839FC0011124922F9F709B
:1000D000892B8BB9599A0000599883EF91E00197C9
:1000E000F1F700C0000008959BB1282F207F9F707A
:1000F000922B9BB9589A599A0000599832E43A9534
:10010000F1F700C02BB130E1839FC0011124922F81
:100110009F70892B8BB9599A0000599883EF91E011
:100120000197F1F700C0000008958FEF8AB987E8C2
:1001300093E10197F1F700C0000082E00E945300B4
:1001400088E20E9453008CE00E94530086E00E94E7
:10015000530081E00E94530083EF91E00197F1F793
:1001600000C000000895CF93DF93EC0189918823AC
:1001700019F00E947400FACFDF91CF91089581E0C9
:100180000E94530083EF91E00197F1F700C0000057
:1001900080E80C94530052985A9A0895E89AE9E638
:1001A000F0E0808181608083789408954A990DC041
:1001B00089EF90E00197F1F700C0000089B182FB60
:1001C000882780F991E08927089580E008950E94AA
:1001D000BF0084E091E00E94B3002FE38DE093E044
:1001E000215080409040E1F700C0000080EC0E9468
:1001F000530084E191E00E94B3002FEB87E299E085
:10020000215080409040E1F700C000000E94BF00F4
:1002100085E291E00E94B30080EC0E94530085E3E8
:1002200091E00E94B3008091020190910301009738
:10023000F1F7089588B1806388B980E28093B800AF
:10024000ECEBF0E080818460808308958091BC00B5
:1002500087FFFCCF089584EA8093BC000C942601AC
:1002600084EC8093BC000E9426018091BB0008951D
:1002700084E88093BC000E9426018091BB00089511
:100280008093BB0084E88093BC000C9426010E94FC
:100290002B0186EA0E9440018DE20E94400188E025
:1002A0000E94400184E98093BC0008950E9495005B
:1002B0000E94CB000E94CE000E941A010E944701BA
:1002C0000E94BF0084E091E00E94B3002FE38DE024
:1002D00093E0215080409040E1F700C0000080ECA6
:1002E0000E94530084E191E00E94B3002FEB87E26B
:1002F00099E0215080409040E1F700C000000E944A
:10030000BF0085E291E00E94B30080EC0E945300A0
:1003100085E391E00E94B300FFCF8091C4019091EA
:10032000C5012091140230911502892B59F43093A4
:10033000C7012093C60181E090E09093C5018093AE
:10034000C40113C08091C6019091C701821B930B19
:1003500097FF03C091958195910990930F02809327
:100360000E021092C5011092C4018091C2019091B9
:10037000C301263E310518F120910E0230910F0283
:100380002B30310574F024E431E0309313022093D4
:100390001202880F991FFC01E053FE4F81E090E0AC
:1003A0001BC02BE431E03093130220931202880F1C
:1003B000991FFC01E053FE4F82E090E00DC020E564
:1003C00031E03093130220931202880F991FFC0131
:1003D000E053FE4F83E090E091838083809112028E
:1003E000909113020895CF93DF930E942B0186EA28
:1003F0000E94400182E30E9440010E942B0187EA93
:100400000E9440010E943001D4E9D093BC0090E0EA
:1004100090930D0280930C020E942B0186EA0E94A9
:10042000400184E30E9440010E942B0187EA0E9460
:1004300040010E943001D093BC0090E090931B02D9
:1004400080931A020E942B0186EA0E94400186E3F3
:100450000E9440010E942B0187EA0E9440010E94F5
:100460003001C82F0E943801D093BC002C2F30E0FF
:1004700087FF03C0319521953109309315022093F0
:100480001402DF91CF910895E0EDF1E080E090E07B
:1004900021913191820F931F22E0EC30F207C1F7D6
:1004A0006EE170E00E948E036130710561F0623090
:1004B000710561F06330710561F06430710561F0C0
:1004C00080E691E0089584E491E008958BE491E062
:1004D000089580E591E0089588E591E00895CF932F
:1004E000DF930E94BF0088E691E00E94B30080EC99
:1004F0000E94530082E791E00E94B30089EC0E94C1
:10050000530089E791E00E94B3008091CA01909165
:10051000CB018E3191050CF043C001969093CB0135
:100520008093CA014AE066E172E00E94B6030E942D
:10053000F3010E94BF0088E691E00E94B30080ECC6
:100540000E94530082E791E00E94B30089EC0E9470
:10055000530089E791E00E94B3000E948D01EC01F5
:1005600089E80E945300CE010E94B30086EC0E94ED
:10057000530086E192E00E94B3002FE38DE093E008
:10058000215080409040E1F700C000008091C201FE
:100590009091C30101969093C3018093C201B5CF9E
:1005A0000E94BF008BE791E00E94B3000E944402CA
:1005B000EC0186EC0E945300CE010E94B300109221
:1005C000CB011092CA01DF91CF91089510920301DF
:1005D000109202010E94BF008DE891E00E94B300DA
:1005E00088EC0E9453008EE991E00E94B3002FE353
:1005F0008DE093E0215080409040E1F700C0000082
:1006000088EC0E94530080EA91E00E94B3002FE33F
:100610008DE093E0215080409040E1F700C0000061
:1006200088EC0E94530082EA91E00E94B3002FE31D
:100630008DE093E0215080409040E1F700C0000041
:100640000E94BF0085E80E94530084EA91E00E9466
:10065000B3002FE38DE093E0215080409040E1F71C
:1006600000C000000C946F021F920F920FB60F9201
:1006700011242F933F934F935F936F937F938F93A7
:100680009F93AF93BF93EF93FF930E94D60088236D
:10069000A1F195B182E0892785B98091CC01909133
:1006A000CD01892B11F00E94E7008091000190910B
:1006B0000101892B59F01092010110920001109252
:1006C000CD011092CC010E94E60217C00E94BF002B
:1006D0008BEA91E00E94B30080EC0E94530086EB0D
:1006E00091E00E94B30081E090E09093010180933B
:1006F00000019093CD018093CC01FF91EF91BF91C8
:10070000AF919F918F917F916F915F914F913F91A9
:100710002F910F900FBE0F901F90189597FB072EEB
:1007200016F4009407D077FD09D00E94A20307FCBD
:1007300005D03EF4909581959F4F089570956195F1
:100740007F4F0895AA1BBB1B51E107C0AA1FBB1F07
:10075000A617B70710F0A61BB70B881F991F5A954D
:10076000A9F780959095BC01CD010895BB274A302B
:1007700031F4992322F4BDE2909581959F4F0C941A
:10078000C203BB27FB015527AA27880F991FAA1F61
:10079000A41710F0A41B83955051B9F7A05DAA339C
:1007A00008F0A95DA193009779F7B111B193119267
:1007B000CB010C94DB03DC01FC01672F71917723E3
:1007C000E1F7329704C07C916D9370836291AE170C
:0A07D000BF07C8F30895F894FFCFA7
:1007DA000100010048692066726F6D20472D426949
:1007EA006B65210042696B696E6720636F6D70618A
:1007FA006E696F6E00507265737320627574746FE0
:10080A006E20746F0073746172742072696465215A
:10081A00203A29004A616767656400466C61740082
:10082A00496E636C696E65004465636C696E650048
:10083A004E6F2044617461005465727261696E3A48
:10084A00200054696D653A20007300417665726133
:10085A006765207465727261696E3A200052696434
:10086A0065207374617274696E6720696E00330063
:10087A0032003100537461727421005468616E6BE6
:10088A007320666F7200726964696E6721203A2963
:02089A0000005C
:00000001FF
