:100000000C9434000C94E0010C9451000C945100B9
:100010000C9451000C9451000C9451000C9451001C
:100020000C9451000C9451000C9451000C9451000C
:100030000C9451000C9451000C9451000C945100FC
:100040000C9451000C9451000C9451000C945100EC
:100050000C9451000C9451000C9451000C945100DC
:100060000C9451000C94510011241FBECFEFD4E02A
:10007000DEBFCDBF11E0A0E0B1E0E2EEF4E002C0EF
:1000800005900D92A23AB107D9F721E0A2EAB1E0BA
:1000900001C01D92AA3AB207E1F70E94D6000C9463
:1000A0006F020C9400009BB1282F207F9F70922B31
:1000B0009BB95898599A0000599832E43A95F1F74B
:1000C00000C02BB130E1839FC0011124922F9F709B
:1000D000892B8BB9599A0000599883EF91E00197C9
:1000E000F1F700C0000008959BB1282F207F9F707A
:1000F000922B9BB9589A599A0000599832E43A9534
:10010000F1F700C02BB130E1839FC0011124922F81
:100110009F70892B8BB9599A0000599883EF91E011
:100120000197F1F700C0000008958FEF8AB987E8C2
:1001300093E10197F1F700C0000082E00E945300B4
:1001400088E20E9453008CE00E94530086E00E94E7
:10015000530081E00E94530083EF91E00197F1F793
:1001600000C000000895CF93DF93EC0189918823AC
:1001700019F00E947400FACFDF91CF91089581E0C9
:100180000E94530083EF91E00197F1F700C0000057
:1001900080E80C94530052985A9A0895E89AE9E638
:1001A000F0E0808181608083789408950E949500BA
:1001B0000E94CB000E94CE000E94BF0084E091E02C
:1001C0000E94B3002FE38DE093E0215080409040E7
:1001D000E1F700C0000080EC0E94530084E191E050
:1001E0000E94B3002FEB87E299E0215080409040BD
:1001F000E1F700C000000E94BF0085E291E00E948C
:10020000B30080EC0E94530085E391E00E94B300AC
:10021000FFCF4A990DC089EF90E00197F1F700C038
:10022000000089B182FB882780F991E08927089531
:1002300080E008950E94BF0084E091E00E94B30036
:100240002FE38DE093E0215080409040E1F700C023
:10025000000080EC0E94530084E191E00E94B30012
:100260002FEB87E299E0215080409040E1F700C0F9
:1002700000000E94BF0085E291E00E94B30080EC84
:100280000E94530085E391E00E94B3008091020137
:10029000909103010097F1F708950E94BF0084E454
:1002A00091E00E94B30080EC0E9453008EE491E044
:1002B0000E94B3008091A2019091A301863991051B
:1002C00014F501969093A3018093A2014AE066EA97
:1002D00071E00E943A0289E80E94530085E591E0AE
:1002E0000E94B30086EC0E94530086EA91E00E94CF
:1002F000B3002FE986E891E0215080409040E1F77B
:1003000000C00000D7CF0E94BF008BE591E00E94A3
:10031000B30086EC0E94530085E591E00E94B30093
:100320001092A3011092A20108951092030110925D
:1003300002010E94BF008DE691E00E94B30088ECAC
:100340000E9453008EE791E00E94B3002FE38DE0FE
:1003500093E0215080409040E1F700C0000088EC1D
:100360000E94530080E891E00E94B3002FE38DE0EB
:1003700093E0215080409040E1F700C0000088ECFD
:100380000E94530082E891E00E94B3002FE38DE0C9
:1003900093E0215080409040E1F700C000000E94AF
:1003A000BF0084E891E00E94B3002FE38DE093E06A
:1003B000215080409040E1F700C000000C944D01B6
:1003C0001F920F920FB60F9211242F933F934F93CA
:1003D0005F936F937F938F939F93AF93BF93EF93AD
:1003E000FF930E9409018823A1F195B182E089273A
:1003F00085B98091A4019091A501892B11F00E94EB
:100400001A018091000190910101892B59F01092FD
:100410000101109200011092A5011092A4010E9406
:10042000950117C00E94BF008BE891E00E94B300C5
:1004300080EC0E94530086E991E00E94B30081E0C5
:1004400090E090930101809300019093A501809327
:10045000A401FF91EF91BF91AF919F918F917F91F7
:100460006F915F914F913F912F910F900FBE0F9021
:100470001F901895BB274A3031F4992322F4BDE22E
:10048000909581959F4F0C944602BB27FB01552701
:10049000AA27880F991FAA1FA41710F0A41B8395E1
:1004A0005051B9F7A05DAA3308F0A95DA193009758
:1004B00079F7B111B1931192CB010C945F02DC0179
:1004C000FC01672F71917723E1F7329704C07C918B
:1004D0006D9370836291AE17BF07C8F30895F894C7
:0204E000FFCF4C
:1004E2000100010048692066726F6D20472D426944
:1004F2006B65210042696B696E6720636F6D706185
:100502006E696F6E00507265737320627574746FDA
:100512006E20746F00737461727420726964652155
:10052200203A29005465727261696E3A200054695A
:100532006D653A2000526F636B7900417665726196
:100542006765207465727261696E3A20005269644F
:1005520065207374617274696E6720696E0033007E
:1005620032003100537461727421005468616E6B01
:100572007320666F7200726964696E6721203A297E
:02058200000077
:00000001FF
