:100000000C9434000C9451000C9451000C94510049
:100010000C9451000C9451000C9451000C9451001C
:100020000C9451000C9451000C9451000C9451000C
:100030000C9451000C9451000C9451000C945100FC
:100040000C9451000C9451000C9451000C945100EC
:100050000C9451000C9451000C9451000C945100DC
:100060000C9451000C94510011241FBECFEFD4E02A
:10007000DEBFCDBF11E0A0E0B1E0ECE9F2E002C0EC
:1000800005900D92A631B107D9F721E0A6E1B1E0C4
:1000900001C01D92AC31B207E1F70E9426010C9419
:1000A0004C010C9400001092C5008CE08093C400B9
:1000B000E0ECF0E080818260808388E18093C10081
:1000C000E2ECF0E086E080838081877F8083089582
:1000D00088B1806388B980E28093B800ECEBF0E0EF
:1000E00080818460808308958091BC0087FFFCCF6D
:1000F000089584EA8093BC000C94740084EC80938F
:10010000BC000E9474008091BB00089584E8809335
:10011000BC000E9474008091BB0008958093BB00D6
:1001200084E88093BC000C9474000E94790086EAF5
:100130000E948E008DE20E948E0088E00E948E0058
:1001400084E98093BC0008950E94790086EA0E94A9
:100150008E0082E30E948E000E94790087EA0E944E
:100160008E000E947E0090E090931701809316010C
:100170000E947E0090E090931B0180931A010E94E0
:10018000860090E0909319018093180184E9809390
:10019000BC0008959091C00095FFFCCF8093C600ED
:1001A00008950F931F93CF938C01C0E0F801EC0FDB
:1001B000F11D8081882321F00E94CA00CF5FF6CF15
:1001C000CF911F910F910895CF93C82F64E60E949D
:1001D0004001805D0E94CA002AE08C2F622F0E949D
:1001E0004001C92F0E94400180E3890F0E94CA008C
:1001F00080E38C0FCF910C94CA001F93CF93DF93B1
:1002000000D0CDB7DEB7182F80E091E04A83698334
:100210000E94D100812F0E94E40085E091E00E94BD
:10022000D1006981862F0E94E4008CE091E00E9459
:10023000D1004A81842F0E94E40083E191E00F9075
:100240000F90DF91CF911F910C94D1000E94530029
:100250000E9468000E9495000E94A400409118012D
:1002600060911A01809116010E94FD002FE38DE03C
:1002700093E0215080409040E1F700C00000ECCFB7
:10028000991B79E004C0991F961708F0961B881FE8
:0C0290007A95C9F780950895F894FFCF87
:10029C0078203D20002C2079203D20002C207A2035
:0602AC003D20000A0D00D8
:00000001FF
