:100000000C9434000C9446000C9446000C9446006A
:100010000C9446000C9446000C9446000C94460048
:100020000C9446000C9446000C9446000C94460038
:100030000C9446000C9446000C9446000C94460028
:100040000C9446000C9446000C9446000C94460018
:100050000C9446000C9446000C9446000C94460008
:100060000C9446000C94460011241FBECFEFD4E040
:10007000DEBFCDBF21E0A0E0B1E001C01D92A13004
:10008000B207E1F70E949A000C94A7000C940000BC
:100090001092C5008CE08093C400E0ECF0E0808119
:1000A0008260808388E18093C100E2ECF0E086E02A
:1000B00080838081877F808308958091C00087FF3F
:1000C000FCCF8091C60008959091C00095FFFCCFB1
:1000D0008093C600089588B1806388B980E28093D8
:1000E000B800ECEBF0E0808184608083089580911B
:1000F000BC0087FFFCCF089584EA8093BC000C9479
:1001000077008093BB0084E88093BC000C94770058
:100110000E947C0086EA90E00E9481008DE290E0DF
:100120000E94810088E090E00E94810084E9809331
:10013000BC0008950E9448000E946B000E94880045
:100140000E945D00809300010E946400F7CFF89444
:02015000FFCFDF
:00000001FF
